:100000000C948A000C94B2000C94B2000C94B200D0
:100010000C94B2000C94B2000C94B2000C94B20098
:100020000C94B2000C94B2000C94B2000C94B20088
:100030000C94B2000C94B2000C94B2000C94B20078
:100040000C94EF060C94B2000C94A8020C9482025B
:100050000C94B2000C94B2000C94B2000C94B20058
:100060000C94DA020C94B20008000000BE922449FD
:10007000123EABAAAA2ABECDCCCC4C3E00000080DA
:10008000BEABAAAAAA3E00000000BF000000803F4D
:100090000000000000084178D3BB4387D1133D190D
:1000A0000E3CC3BD4282AD2B3E68EC8276BED98F3A
:1000B000E1A93E4C80EFFFBE01C4FF7F3F0000007E
:1000C000000000000000240027002A0000000000BB
:1000D000250028002B000404040404040404020284
:1000E00002020202030303030303010204081020B7
:1000F00040800102040810200102040810200000C2
:1001000000080002010000030407000000000000D6
:100110000000110E11241FBECFEFD8E0DEBFCDBF0F
:1001200011E0A0E0B1E0ECE5F3E202C005900D9231
:10013000AA38B107D9F723E0AAE8B1E001C01D92BF
:10014000A139B207E1F710E0CAE8D0E004C0219776
:10015000FE010E94A111C938D107C9F70E943907D1
:100160000C94AC110C9400008091DB0190E0209184
:10017000DC01821B9109089508950895CF92DF92C2
:10018000EF92FF920F931F93CF93DF936C017A014D
:100190008B01C0E0D0E0CE15DF0581F0D8016D9174
:1001A0008D01D601ED91FC910190F081E02DC60109
:1001B0000995892B11F02196EECF7E01C701DF91C1
:1001C000CF911F910F91FF90EF90DF90CF90089506
:1001D000FC01538D448D252F30E0842F90E0821B4D
:1001E000930B541710F0CF96089501970895FC01D2
:1001F000918D828D981761F0828DDF01A80FB11D5E
:100200005D968C91928D9F5F9F73928F90E0089581
:100210008FEF9FEF0895FC01918D828D981731F03B
:10022000828DE80FF11D858D90E008958FEF9FEF8F
:100230000895FC01918D228D892F90E0805C9F4F65
:10024000821B91098F739927089588E492E00E9498
:10025000190121E0892B09F420E0822F0895FC0187
:10026000848DDF01A80FB11DA35ABF4F2C91848D3F
:1002700090E001968F739927848FA689B7892C9374
:10028000A089B1898C91837080648C93938D848DC7
:10029000981306C00288F389E02D80818F7D8083CA
:1002A0000895EF92FF920F931F93CF93DF93EC018A
:1002B00081E0888F9B8D8C8D981305C0E889F98922
:1002C000808185FD26C0F62E0B8D10E00F5F1F4F3D
:1002D0000F731127E02E8C8DE8120CC00FB607FCAF
:1002E000FACFE889F989808185FFF5CFCE010E9498
:1002F0002F01F1CF8B8DFE01E80FF11DE35AFF4F67
:10030000F0829FB7F8940B8FEA89FB898081806225
:100310000AC09FB7F894EE89FF896083E889F9895C
:1003200080818370806480839FBF81E090E0DF9153
:10033000CF911F910F91FF90EF900895CF93DF938E
:10034000EC01888D8823C9F0EA89FB89808185FDCD
:1003500005C0A889B9898C9186FD0FC00FB607FC2E
:10036000F5CF808185FFF2CFA889B9898C9185FF6F
:10037000EDCFCE010E942F01E7CFDF91CF910895FD
:1003800080E090E0892B29F00E94250181110C94D6
:100390000000089585ED8093BC008091BC0084FD31
:1003A000FCCF1092230208954091AA01262F30E03D
:1003B000240F311D21323105DCF420912302243039
:1003C000C9F4FC0180E090E0861758F43091AA014E
:1003D0002191DC01A657BE4FA30FB11D2C930196AE
:1003E000F3CF8091AA01680F6093AA0180E008957D
:1003F00081E0089582E008950895E091DC01809104
:10040000DB01E81730F4F0E0E352FE4F808190E02A
:1004100008958FEF9FEF08959091DC018091DB01AB
:10042000981750F4E92FF0E0E352FE4F208130E0BE
:100430009F5F9093DC0102C02FEF3FEFC901089549
:10044000CF92DF92EF92FF920F931F93CF93DF93A0
:100450007C01CB018A0120912402222389F0EB0147
:100460006B01C40ED51ECC15DD0569F06991D7016D
:10047000ED91FC910190F081E02DC7010995F3CF3A
:10048000642F0E94D401C801DF91CF911F910F9179
:10049000FF90EF90DF90CF900895CF93DF931F925E
:1004A000CDB7DEB76983209124022223D1F02091B9
:1004B0004702203240F021E030E0FC013383228308
:1004C00080E090E015C080912502E82FF0E0EA5D21
:1004D000FD4F998190838F5F80932502809347021F
:1004E00005C061E0CE0101960E94D40181E090E058
:1004F0000F90DF91CF910895089580E090E00895E6
:100500000E94A7111F920F920FB60F9211242F93E2
:100510003F934F935F936F937F938F939F93AF938B
:10052000BF93EF93FF9388E492E00E942F01FF9125
:10053000EF91BF91AF919F918F917F916F915F915B
:100540004F913F912F910F900FBE0F901F901895D4
:100550001F920F920FB60F9211242F938F939F9398
:10056000EF93FF93E0915802F09159028081E0915E
:100570005E02F0915F0282FD12C090818091610263
:100580008F5F8F7320916202821751F0E0916102B8
:10059000F0E0E85BFD4F958F8093610201C08081A0
:1005A000FF91EF919F918F912F910F900FBE0F9020
:1005B0001F9018951F920F920FB60F9211242F9330
:1005C0003F934F935F936F937F938F939F93AF93DB
:1005D000BF93EF93FF938091B900887F803609F431
:1005E0009CC068F5883209F45BC090F4803109F44E
:1005F00054C038F4882309F4F6C0883009F44DC09B
:10060000F6C0883109F44CC0803209F45DC0EFC0F7
:10061000803409F468C048F4803309F455C0883345
:1006200009F0E5C080932102D8C0803509F44FC09D
:10063000883509F45DC0883409F0D9C0D6C088393E
:1006400009F4C7C0A8F4883709F467C038F48836BD
:1006500009F463C0803709F460C0C9C0883809F460
:10066000B8C0803909F45FC0803809F0C0C05BC0F1
:10067000803B09F486C038F4803A09F466C0883AB1
:1006800009F47FC0B4C0803C09F4A7C0883C09F4D9
:10069000A4C0883B09F48AC0AAC08091FE0110C0A2
:1006A0009091200280911F02981770F5E09120022E
:1006B00081E08E0F80932002F0E0E150FE4F8081B8
:1006C0008093BB0085EC86C0809321028EC0E091B0
:1006D000200281E08E0F809320028091BB00F0E029
:1006E000E150FE4F80839091200280911F026EC0E6
:1006F000E091200281E08E0F809320028091BB0068
:10070000F0E0E150FE4F80838091220281116DC0A4
:1007100081E08093FD0184EA61C083E0809323023D
:100720001092CC01CFCF8091CC01803208F051C023
:10073000E091CC0181E08E0F8093CC018091BB00D1
:10074000F0E0E455FE4F8083BDCF85EC8093BC0084
:10075000109223028091CC01803230F4E091CC01E0
:10076000F0E0E455FE4F10826091CC0170E0E09122
:10077000CD01F091CE018CEA91E009951092CC0167
:1007800036C084E0809323021092AB011092AA013C
:10079000E091CF01F091D00109958091AA018111DA
:1007A00005C081E08093AA0110928A01E091AB011B
:1007B00081E08E0F8093AB01F0E0E657FE4F808121
:1007C0008093BB009091AB018091AA01981708F427
:1007D00079CF85E88093BC000AC085EC8093BC008B
:1007E0001092230204C0109221020E94CA01FF91BC
:1007F000EF91BF91AF919F918F917F916F915F9199
:100800004F913F912F910F900FBE0F901F90189511
:10081000282F30914702313208F04AC080912302DC
:100820008111FCCF9091460242E040932302209335
:1008300022022FEF209321021092200230931F02F8
:10084000E6E2F2E0AFEFB1E020E0321721F04191B3
:100850004D932F5FFACF1092FE012091FE01990F68
:10086000922B9093FE019091FD01913061F41092D2
:10087000FD019091FE019093BB009091BC0093FD0F
:10088000F8CF95EC01C095EE9093BC0090912302B7
:100890009230E1F3909121029F3F79F08091210203
:1008A000803241F080912102803331F084E005C034
:1008B00081E003C082E001C083E010922502109223
:1008C0004702109224020895CF93C62F91E090938F
:1008D000240297E590934602109225021092470257
:1008E000682F85EE92E00E944D026C2F85EE92E01B
:1008F0000E944D0281E0CF910C940804009769F0AA
:10090000FC0101900020E9F73197AF01481B590B1A
:10091000BC0188E492E00C94BE0080E090E0089571
:10092000909123029111FCCF91E090932302909338
:1009300022022FEF2093210210922002260F2093F3
:100940001F029093FE019091FE01880F892B8093E6
:10095000FE018091FD01813061F41092FD018091D2
:10096000FE018093BB008091BC0083FDF8CF85EC35
:1009700001C085EE8093BC00809123028130E1F3B9
:1009800080912002861710F460912002AFEFB1E051
:10099000EDEDF1E080E0861721F09D9191938F5F5E
:1009A000FACF089591E09093240297E59093460240
:1009B0001092250210924702682F85EE92E00E9465
:1009C0004D0280E00E94080461E087E50E949004E7
:1009D0001092DC018093DB0185EE92E00E940C0214
:1009E000089590E0FC01E250FF4F2491FC01E65194
:1009F000FF4F3491FC01EA52FF4FE491EE23B1F135
:100A0000222339F1233091F038F42130A9F022303B
:100A100001F584B58F7D12C0273091F02830A1F008
:100A20002430B9F4809180008F7D03C080918000D4
:100A30008F77809380000DC084B58F7784BD09C007
:100A40008091B0008F7703C08091B0008F7D80933C
:100A5000B000F0E0EE0FFF1FE453FF4FA591B491FB
:100A60008FB7F894EC91E32BEC938FBF08958F929E
:100A70009F92AF92BF920F931F93CF93DF93CDB707
:100A8000DEB7A1970FB6F894DEBF0FBECDBF19A297
:100A9000423008F44AE08E010F5D1F4F842E912CE6
:100AA000A12CB12CA50194010E947F11E62FB90160
:100AB000CA0101501109EA3014F4E05D01C0E95C9B
:100AC000D801EC93232B242B252B61F7C8010E941E
:100AD0007E04A1960FB6F894DEBF0FBECDBFDF91A6
:100AE000CF911F910F91BF90AF909F908F900895DD
:100AF0008F929F92AF92BF92CF92DF92EF92FF922E
:100B00000F931F93CF93DF936B017C01142F9B01F5
:100B1000AC010E944511882319F08EE791E027C0AF
:100B200046015701E894B7F82FEF3FEF4FE75FE733
:100B3000C501B4010E94451181110DC02FEF3FEF97
:100B40004FE75FE7C501B4010E942B0F18161CF494
:100B500082E891E00CC02FEF3FEF4FE75FE4C70161
:100B6000B6010E948310181684F486E891E0DF91A4
:100B7000CF911F910F91FF90EF90DF90CF90BF909A
:100B8000AF909F908F900C947E042FEF3FEF4FE734
:100B90005FECC701B6010E942B0F87FDE6CF20E076
:100BA00030E0A901C701B6010E942B0F87FF0BC0DF
:100BB0006DE288E492E00E945101EC01F7FAF094B2
:100BC000F7F8F09402C0C0E0D0E000E060E070E030
:100BD00080E09FE3101741F020E030E040E251E474
:100BE0000E94300F0F5FF6CFA70196010E94BF0E43
:100BF0006B017C010E94A20F4B015C014AE00E9444
:100C00003705C80FD91F1123B9F1C501B4010E94DE
:100C1000D10F9B01AC01C701B6010E94BE0E6B0152
:100C20007C016EE288E492E00E945101C80FD91F56
:100C300020E030E040E251E4C701B6010E94D81044
:100C40004B015C010E94A20F6B01E12CF12C4AE0E8
:100C5000C701B6010E943705C80FD91FC701B601E9
:100C60000E94D10F9B01AC01C501B4010E94BE0ED0
:100C70006B017C011150E1F6CE01DF91CF911F9104
:100C80000F91FF90EF90DF90CF90BF90AF909F902B
:100C90008F900895CF93DF9342E00E947805EC0196
:100CA00083E791E00E947E048C0F9D1FDF91CF911E
:100CB00008958F929F92AF92BF92CF92DF92EF9260
:100CC000FF9280900F0390901003A0901103B090BA
:100CD000120320E030E0A901C501B4010E94831095
:100CE0001816B4F5C0900B03D0900C03E0900D03E0
:100CF000F0900E0320E030E0A901C701B6010E9488
:100D0000831018162CF523E333E343E35FE3C501B7
:100D1000B4010E94D8104B015C0120E030E040E2B9
:100D200051E4C701B6010E94300F9B01AC01C5011F
:100D3000B4010E94300F9B01AC01609107037091D8
:100D400008038091090390910A030E94BE0E0EC011
:100D500024EA30E74DE75FE36091070370910803F1
:100D60008091090390910A030E94D81060930703B1
:100D7000709308038093090390930A0320E030E006
:100D800040EA51E4609107037091080380910903E0
:100D900090910A030E942B0F87FF0CC080E090E027
:100DA000A0EAB1E48093070390930803A09309039A
:100DB000B0930A03FF90EF90DF90CF90BF90AF9079
:100DC0009F908F9008952FB7F89460918D03709144
:100DD0008E0380918F03909190032FBF08951F92EF
:100DE0000F920FB60F9211242F933F938F939F93DF
:100DF000AF93BF9380918D0390918E03A0918F0349
:100E0000B091900330918C0323E0230F2D3720F411
:100E10000196A11DB11D05C026E8230F0296A11D54
:100E2000B11D20938C0380938D0390938E03A09328
:100E30008F03B09390038091880390918903A091D0
:100E40008A03B0918B030196A11DB11D8093880385
:100E500090938903A0938A03B0938B03BF91AF91C2
:100E60009F918F913F912F910F900FBE0F901F90E8
:100E70001895CF93DF93CDB7DEB7CD54D1090FB618
:100E8000F894DEBF0FBECDBF789484B5826084BD78
:100E900084B5816084BD85B5826085BD85B581607E
:100EA00085BD80916E00816080936E0010928100FC
:100EB00080918100826080938100809181008160B7
:100EC0008093810080918000816080938000809178
:100ED000B10084608093B1008091B0008160809304
:100EE000B00080917A00846080937A0080917A00CB
:100EF000826080937A0080917A00816080937A008A
:100F000080917A00806880937A001092C100E0910D
:100F10005802F091590282E08083E0915402F091EE
:100F200055021082E0915602F09157028FEC8083B7
:100F300010926002E0915C02F0915D0286E0808395
:100F4000E0915A02F0915B02808180618083E091A0
:100F50005A02F0915B02808188608083E0915A029E
:100F6000F0915B02808180688083E0915A02F09169
:100F70005B0280818F7D80831092F4021092F302D5
:100F80001092DC011092DB011092250210924702B0
:100F90001092230281E0809322021092FD0182E1EF
:100FA0000E94F10483E10E94F1048091B9008E7FD8
:100FB0008093B9008091B9008D7F8093B90088E457
:100FC0008093B80085E48093BC008CEB90E0909314
:100FD000D0018093CF018DEB90E09093CE01809370
:100FE000CD018CE08093B8008FEF0E94D204813154
:100FF00009F05CC062E086E00E94640487E00E9421
:10100000D204682F636087E00E94640487E00E9436
:10101000D204837E682F646087E00E9464046FEFCF
:1010200089E00E94640487E00E94D204682F606413
:1010300087E00E94640463E086E00E94640480917B
:101040002F0320E1829FC001112460913003682B9F
:1010500089E00E94640483E393E3A3E7BFE3809302
:10106000170390931803A0931903B0931A031092D7
:101070001B0310921C0310921D0310921E038093F9
:101080001F0390932003A0932103B0932203109297
:10109000230310922403109225031092260381E06B
:1010A00090E09093F2028093F1020EC08091F302DF
:1010B0009091F402892B41F08FE491E00E947E042C
:1010C00083E791E00E947E04E8EFF0E02491E4EEF3
:1010D000F0E084918823C9F090E0880F991FFC010B
:1010E000EE53FF4F45915491FC01E453FF4FA591FE
:1010F000B4919FB7F894FA01808120958223808370
:101100008C91E22FE823EC939FBF82E090E09093D4
:1011100031038093300360912F03F0E16F9FB001A2
:101120001124626089E00E94640482E00E94D2047B
:10113000182F84E00E94D204181B1F7009F483C08A
:1011400021E02093240287E5809346021092250235
:101150001092470265E085EE92E00E944D0280E029
:101160000E940804612F660F660F613208F060E28A
:1011700087E50E9490041092DC018093DB0100E07F
:101180009091DB018091DC01981781F0FF24F394AA
:10119000F00E85EE92E00E940C02E1E0F0E0EC0F30
:1011A000FD1FE00FF11D80830F2DEACFE091820338
:1011B000F09183038091800390918103DE01119669
:1011C00060E04C9150E0542F442711962C911197D8
:1011D000422B12962C91129730E0322F2227139631
:1011E0007C911397272B349673E0E038F70711F4BE
:1011F000E0E4F3E05183408333832283209184032E
:10120000309185032031310541F4049623E0803884
:10121000920769F480E493E00AC0A9014F5F5F4F31
:101220005093850340938403232B09F4CF016F5F10
:1012300014961613C6CFF0938303E0938203909322
:1012400081038093800380918403909185030097AC
:1012500009F4C4C3E0918203F09183039F012450F9
:10126000310930938303209382034081518162814D
:1012700073812A964CAF5DAF6EAF7FAF2A97205433
:10128000334030F46CE773E0709383036093820320
:1012900001979093850380938403C0901B03D090A3
:1012A0001C03E0901D03F0901E0320911703309162
:1012B00018034091190350911A03C701B6010E9407
:1012C000D8104B015C012896EEADFFAD2897BF0109
:1012D00080E090E00E94D10F9B01AC01C501B401F8
:1012E0000E94BF0E60931B0370931C0380931D0329
:1012F00090931E03A70196010E94BE0E26966CAF26
:101300007DAF8EAF9FAF2697C0902303D09024036C
:10131000E0902503F090260320911F0330912003D5
:101320004091210350912203C701B6010E94D810B9
:101330004B015C012A962EAD3FAD2A97B90180E0A2
:1013400090E00E94D10F9B01AC01C501B4010E9445
:10135000BF0E60932303709324038093250390931F
:101360002603A70196010E94BE0E2E966CAF7DAF9C
:101370008EAF9FAF2E97C0902B03D0902C03E090A0
:101380002D03F0902E03C0922703D0922803E09201
:101390002903F0922A0326966CAD7DAD8EAD9FADEC
:1013A000269790582BE73FE14BE75EE30E94D81069
:1013B0004B015C0123E430E742E05FE3C701B60183
:1013C0000E94D8109B01AC01C501B4010E94BF0E60
:1013D0009B01AC0160932B0370932C0380932D032E
:1013E00090932E03C701B6010E94BF0E062F372E21
:1013F000282E22969FAF2297809105039091060395
:101400008230910509F482C028F4009759F00197C1
:10141000C1F056C18330910509F4B7C0049709F4AF
:1014200032C14EC10E94E306613D774081059105BE
:1014300008F446C141E050E0509306034093050391
:101440003FC1209107033091080340910903509157
:101450000A03602F732D822D22969FAD22970E9442
:10146000831018165CF520E030E048E454E4602F67
:10147000732D822D22969FAD22970E942B0F87FD00
:1014800005C050E040E038E424E406C0502F432D6E
:10149000322D22962FAD2297852F942FA32FB22F76
:1014A0008093070390930803A0930903B0930A0362
:1014B00062E070E070930603609305030E94E30608
:1014C000C0901303D0901403E0901503F09016031E
:1014D000DC01CB018C199D09AE09BF09813D974004
:1014E000A105B10580F010920B0310920C0310922D
:1014F0000D0310920E0310920F031092100310921E
:101500001103109212030E945906DAC020910703BA
:10151000309108034091090350910A03602F732D05
:10152000822D22969FAD22970E942B0F87FF07C026
:1015300083E090E09093060380930503C1C020E010
:1015400030E048E454E4602F732D822D22969FAD45
:1015500022970E942B0F87FD05C050E040E038E441
:1015600024E406C0502F432D322D22962FAD229712
:10157000852F942FA32FB22F8093070390930803F6
:10158000A0930903B0930A039BC020E030E040EF32
:1015900051E4602F732D822D22969FAD22970E94D9
:1015A000BF0E209107033091080340910903509129
:1015B0000A030E942B0F87FF5FC0802F932DA22D5F
:1015C0002296BFAD229780930F0390931003A093B0
:1015D0001103B0931203E4E0F0E0F0930603E0930C
:1015E00005030E94E306C0901303D0901403E0901B
:1015F0001503F09016036C197D098E099F090E944E
:10160000D10F6B017C0120E030E0A9010E942B0F7B
:10161000882331F12CEC3CEC4CEC5EE360910B0345
:1016200070910C0380910D0390910E030E94D810CD
:101630004B015C012AE939E949E15FE3C701B601E1
:101640000E94D8109B01AC01C501B4010E94BF0EDD
:1016500060930B0370930C0380930D0390930E0320
:101660000E94E306609313037093140380931503A1
:101670009093160311E025C022E030E0309306037A
:10168000209305031DC00E94E306C0901303D09071
:101690001403E0901503F0901603DC01CB018C19C4
:1016A0009D09AE09BF09893C9105A105B10508F462
:1016B0002ACF41E050E0509306034093050323CF27
:1016C00010E0C0900B03D0900C03E0900D03F0905D
:1016D0000E0320E030E0A901C701B6010E942B0FE4
:1016E000882309F4E6C0A701960160E070E080E875
:1016F0009FE30E94300F20E030E04AE754E40E946C
:10170000D81020E030E040E752E40E94D81020E0FA
:1017100030E0A9010E94831018160CF0CAC062E0E4
:1017200070E07093F2026093F10226962CAD3DAD0D
:101730004EAD5FAD2697CA01B9010E94D810209125
:1017400032033091330340913403509135030E94AA
:10175000BF0E6B017C01609332037093330380935F
:101760003403909335032E962CAD3DAD4EAD5FAD59
:101770002E97CA01B9010E94D810209136033091EA
:10178000370340913803509139030E94BF0E2B015B
:101790003C01609336037093370380933803909332
:1017A000390380913B0390913C03A0913D03B0919C
:1017B0003E03BC01CD016F5F7F4F8F4F9F4F609302
:1017C0003B0370933C0380933D0390933E031123AE
:1017D00009F497C020913A032F5F20933A032330F6
:1017E00009F08FC00E94D10F4B015C019B01AC013D
:1017F000C301B2010E94300F0E9490102B013C01E6
:10180000A5019401C701B6010E94300F0E949010FB
:101810006B017C0120E030E048EC52E4C301B201EE
:101820000E94D810A70196010E94300F6B017C0125
:1018300020E030E044E852E40E948310181634F4AB
:10184000C701B6010E94A20F625411C020E030E02F
:1018500048E452E4C701B6010E948310181634F41C
:10186000C701B6010E94A20F625301C060E010924E
:101870003B0310923C0310923D0310923E031092E2
:1018800036031092370310923803109239031092E6
:1018900032031092330310923403109235031092E6
:1018A0003A03E62FF0E0E050FF4F808180933F0342
:1018B00028C08091F1029091F202029711F581E027
:1018C00090E09093F2028093F10210923B03109209
:1018D0003C0310923D0310923E0310923603109287
:1018E000370310923803109239031092320310928A
:1018F0003303109234031092350310923A0310927E
:101900003F038091F3029091F4028230910539F106
:1019100083309105E1F1019709F054C086E791E029
:101920000E947E042896EEADFFAD2897BF0180E0AF
:1019300090E04AE00E94370589E791E00E947E042A
:101940002A962EAD3FAD2A97B90180E090E04AE09B
:101950000E94370583E791E00E947E0433C086E74A
:1019600091E00E947E0442E026966CAD7DAD8EAD86
:101970009FAD26970E94780589E791E00E947E043A
:101980002E966CAD7DAD8EAD9FAD2E9719C086E7BE
:1019900091E00E947E0442E0602F732D822D2296FA
:1019A0009FAD22970E94780589E791E00E947E040E
:1019B00060910703709108038091090390910A03D5
:1019C0000E944A06112309F43ECCE0918603F0916F
:1019D0008703309709F437CC099535CC0E94E3068C
:1019E0000091FD021091FE022091FF023091000350
:1019F000DC01CB01801B910BA20BB30B853F914007
:101A0000A105B10508F440C080901B0390901C0311
:101A1000A0901D03B0901E03C0902303D090240318
:101A2000E0902503F0902603A7019601C501B401BB
:101A30000E94BE0E20E038EB48E857E40E94831075
:101A4000181634F480912F038F3010F48F5FB9C0D3
:101A5000A5019401C701B6010E94BE0E20E038EB3B
:101A600048E857E40E948310181624F480912F034D
:101A70008111A6C00E94E3066093FD027093FE02EE
:101A80008093FF02909300030E94E3060091D70128
:101A90001091D8012091D9013091DA01DC01CB01FC
:101AA000801B910BA20BB30B893E9340A105B1059E
:101AB00008F43BCBC0900B03D0900C03E0900D03D7
:101AC000F0900E0320E030E0A901C701B6010E94AA
:101AD0002B0F8823B9F0A701960160E070E080E841
:101AE0009FE30E94300F20E030E04AE754E40E9478
:101AF000D81020E030E040E752E40E94D8106B019B
:101B00007C0103C0C12CD12C7601C092D301D092AC
:101B1000D401E092D501F092D6010E94E3066093D1
:101B2000D7017093D8018093D9019093DA01C7014E
:101B3000B6010E944A0607E310E0C8010197F1F7D9
:101B400060913F0370E080E090E00E94D10F0E941E
:101B50004A06C8010197F1F780E480937C008091E8
:101B60007A00806480937A0080917A0086FDFCCFB1
:101B7000609178008091790070E0782B072E000C3E
:101B8000880B990B0E94D30F20E030E04AEF53E41A
:101B90000E94D81020E030EC4FE754E40E94300F50
:101BA0000E944A0687E390E00197F1F78091D10106
:101BB0009091D20101969093D2018093D101B5CA40
:101BC000815080932F0380912F0350E1859FC001A6
:101BD000112460913003682B89E00E9464040E9404
:101BE000E3066093010370930203809303039093D1
:101BF00004038091F3029091F402892B09F43ACF07
:101C00008BE791E00E947E0460912F0370E080E0FA
:101C100090E04AE00E94370583E791E00E947E044D
:101C200029CFE8E4F2E01382128288EE93E0A0E08C
:101C3000B0E084839583A683B7832FE231E03183BC
:101C4000208325EC30E03587248724EC30E037878B
:101C5000268720EC30E0318B208B21EC30E0338B79
:101C6000228B22EC30E0358B248B26EC30E0378B56
:101C7000268B118E128E138E148EE5EEF2E01382F7
:101C8000128284839583A683B78381E491E0918354
:101C90008083E1EFF2E011821082148215821682B5
:101CA000178210861186128613861486158616866C
:101CB0001786108A118A128A138A158A148A80E07C
:101CC00090E0A0EAB1E4868B978BA08FB18F128E43
:101CD000138E148E158E168E178E10A211A212A2BC
:101CE00013A214A215A216A217A210A611A612A63C
:101CF00013A614A615A616A617A610AA11AA12AA0C
:101D000013AA14AA15AA16AA17AA10AE11AE88E033
:101D100086AF8FE090E09093310380933003109270
:101D20003203109233031092340310923503109251
:101D30003603109237031092380310923903109231
:101D40003A0310923B0310923C0310923D03109211
:101D50003E0310923F0380E493E0909381038093CD
:101D600080039093830380938203109285031092E3
:101D70008403109287031092860308955058BB275E
:101D8000AA270E94D60E0C9449100E943B1038F0EE
:101D90000E94421020F039F49F3F19F426F40C946D
:101DA00038100EF4E095E7FB0C943210E92F0E94F6
:101DB0005A1058F3BA17620773078407950720F083
:101DC00079F4A6F50C947C100EF4E0950B2EBA2F46
:101DD000A02D0B01B90190010C01CA01A001112431
:101DE000FF27591B99F0593F50F4503E68F11A16DD
:101DF000F040A22F232F342F4427585FF3CF46956E
:101E000037952795A795F0405395C9F77EF41F168F
:101E1000BA0B620B730B840BBAF09150A1F0FF0F59
:101E2000BB1F661F771F881FC2F70EC0BA0F621F45
:101E3000731F841F48F4879577956795B795F79535
:101E40009E3F08F0B0CF9395880F08F09927EE0FCA
:101E50009795879508950E940E1008F481E00895E3
:101E60000E94440F0C9449100E94421058F00E94A6
:101E70003B1040F029F45F3F29F00C9432105111CF
:101E80000C947D100C9438100E945A1068F399231A
:101E9000B1F3552391F3951B550BBB27AA27621766
:101EA0007307840738F09F5F5F4F220F331F441F73
:101EB000AA1FA9F335D00E2E3AF0E0E832D09150A7
:101EC0005040E695001CCAF72BD0FE2F29D0660F94
:101ED000771F881FBB1F261737074807AB07B0E8D7
:101EE00009F0BB0B802DBF01FF2793585F4F3AF0DD
:101EF0009E3F510578F00C9432100C947D105F3F9A
:101F0000E4F3983ED4F3869577956795B795F79562
:101F10009F5FC9F7880F911D9695879597F908954A
:101F2000E1E0660F771F881FBB1F621773078407E6
:101F3000BA0720F0621B730B840BBA0BEE1F88F7F5
:101F4000E09508950E94621088F09F5798F0B92F8D
:101F50009927B751B0F0E1F0660F771F881F991FDE
:101F60001AF0BA95C9F714C0B13091F00E947C10F4
:101F7000B1E008950C947C10672F782F8827B85F04
:101F800039F0B93FCCF3869577956795B395D9F736
:101F90003EF490958095709561957F4F8F4F9F4F40
:101FA0000895E89409C097FB3EF49095809570954C
:101FB00061957F4F8F4F9F4F9923A9F0F92F96E995
:101FC000BB279395F695879577956795B795F1110A
:101FD000F8CFFAF4BB0F11F460FF1BC06F5F7F4FA7
:101FE0008F4F9F4F16C0882311F096E911C07723B9
:101FF00021F09EE8872F762F05C0662371F096E8C2
:10200000862F70E060E02AF09A95660F771F881F90
:10201000DAF7880F9695879597F90895990F000834
:10202000550FAA0BE0E8FEEF16161706E807F907AA
:10203000C0F012161306E407F50798F0621B730B45
:10204000840B950B39F40A2661F0232B242B252BC6
:1020500021F408950A2609F4A140A6958FEF811D69
:10206000811D089597F99F6780E870E060E008950A
:102070009FEF80EC089500240A94161617061806A0
:102080000906089500240A9412161306140605067C
:102090000895092E0394000C11F4882352F0BB0F0D
:1020A00040F4BF2B11F460FF04C06F5F7F4F8F4F70
:1020B0009F4F089557FD9058440F551F59F05F3FAB
:1020C00071F04795880F97FB991F61F09F3F79F05A
:1020D00087950895121613061406551FF2CF4695DC
:1020E000F1DF08C0161617061806991FF1CF86955E
:1020F0007105610508940895E894BB276627772742
:10210000CB0197F908950E940E1008F48FEF0895FF
:1021100016F00C944A110C94381068940C943210F8
:102120000E946210A8F39923C1F3AEF3DF93CF931B
:102130001F930F93FF92C92FDD2788232AF0219741
:10214000660F771F881FDAF720E030E040E85FEB8A
:102150009FE3883920F0803E38F021968F770E94E7
:10216000BF0EE8E6F0E004C00E94BF0EE5E9F0E033
:102170000E9458118B01BE01EC01FB2E6F577109B3
:102180007595771F880B990B0E94D30F28E132E7D2
:1021900041E35FE30E94EB10AF2D9801AE01FF9089
:1021A0000F911F91CF91DF910E94D60E0C94491090
:1021B0000E94EB100C9449100E943B1038F00E94D2
:1021C000421020F0952311F00C9432100C9438102A
:1021D00011240C947D100E945A1070F3959FC1F346
:1021E000950F50E0551F629FF001729FBB27F00DC5
:1021F000B11D639FAA27F00DB11DAA1F649F66271A
:10220000B00DA11D661F829F2227B00DA11D621F68
:10221000739FB00DA11D621F839FA00D611D221F22
:10222000749F3327A00D611D231F849F600D211D06
:10223000822F762F6A2F11249F5750409AF0F1F089
:1022400088234AF0EE0FFF1FBB1F661F771F881FF2
:1022500091505040A9F79E3F510580F00C943210E8
:102260000C947D105F3FE4F3983ED4F38695779508
:102270006795B795F795E7959F5FC1F7FE2B880F98
:10228000911D9695879597F908950E940E10880BD9
:10229000990B08959F3F31F0915020F487957795E1
:1022A0006795B795880F911D9695879597F908952D
:1022B000DF93CF931F930F93FF92EF92DF927B01F7
:1022C0008C01689406C0DA2EEF010E94EB10FE012B
:1022D000E894A5912591359145915591A6F3EF018B
:1022E0000E94D60EFE019701A801DA9469F7DF90EB
:1022F000EF90FF900F911F91CF91DF910895A1E290
:102300001A2EAA1BBB1BFD010DC0AA1FBB1FEE1F6F
:10231000FF1FA217B307E407F50720F0A21BB30BBA
:10232000E40BF50B661F771F881F991F1A9469F736
:1023300060957095809590959B01AC01BD01CF0192
:102340000895EE0FFF1F0590F491E02D099481E0B0
:0C23500090E0F8940C94AC11F894FFCFCE
:10235C006464646463636363636362626262626144
:10236C0061616161616060606060605F5F5F5F5F61
:10237C005F5E5E5E5E5E5D5D5D5D5D0000000051FA
:10238C0001BE00E8009E011901F7000B01000000DE
:10239C00004D0220027D02FC01B4000C02FD01463E
:1023AC0061696C656420746F20696E697469616C15
:1023BC00697A65207468652048524D2073656E7388
:1023CC006F72000D0A00523A002C00493A006E61FF
:0A23DC006E00696E66006F76660001
:107E0000112484B714BE81FFF0D085E080938100F7
:107E100082E08093C00088E18093C10086E0809377
:107E2000C20080E18093C4008EE0C9D0259A86E02C
:107E300020E33CEF91E0309385002093840096BBD3
:107E4000B09BFECF1D9AA8958150A9F7CC24DD24C4
:107E500088248394B5E0AB2EA1E19A2EF3E0BF2EE7
:107E6000A2D0813461F49FD0082FAFD0023811F036
:107E7000013811F484E001C083E08DD089C08234E0
:107E800011F484E103C0853419F485E0A6D080C0E4
:107E9000853579F488D0E82EFF2485D0082F10E0AE
:107EA000102F00270E291F29000F111F8ED06801E7
:107EB0006FC0863521F484E090D080E0DECF843638
:107EC00009F040C070D06FD0082F6DD080E0C81688
:107ED00080E7D80618F4F601B7BEE895C0E0D1E017
:107EE00062D089930C17E1F7F0E0CF16F0E7DF06D8
:107EF00018F0F601B7BEE89568D007B600FCFDCFD4
:107F0000A601A0E0B1E02C9130E011968C91119780
:107F100090E0982F8827822B932B1296FA010C0160
:107F200087BEE89511244E5F5F4FF1E0A038BF0790
:107F300051F7F601A7BEE89507B600FCFDCF97BE46
:107F4000E89526C08437B1F42ED02DD0F82E2BD052
:107F50003CD0F601EF2C8F010F5F1F4F84911BD097
:107F6000EA94F801C1F70894C11CD11CFA94CF0C13
:107F7000D11C0EC0853739F428D08EE10CD085E9AC
:107F80000AD08FE07ACF813511F488E018D01DD067
:107F900080E101D065CF982F8091C00085FFFCCF94
:107FA0009093C60008958091C00087FFFCCF809118
:107FB000C00084FD01C0A8958091C6000895E0E648
:107FC000F0E098E1908380830895EDDF803219F02E
:107FD00088E0F5DFFFCF84E1DECF1F93182FE3DFCA
:107FE0001150E9F7F2DF1F91089580E0E8DFEE27F6
:047FF000FF270994CA
:027FFE00040479
:0400000300007E007B
:00000001FF
